:200000000C94DE000C9406010C9406010C9406010C9406010C9406010C9406010C940601D1
:200020000C9406010C9406010C9406010C9406010C9406010C9406010C9406010C94060188
:200040000C9401040C9406010C9406010C9406010C9406010C9406010C9406010C9406016A
:200060000C9406010C94060100000000240027002A000000000000000000000000000000BD
:2000800000000000000000000000010101010101010101010101020202020202020203033E
:2000A00003030303040404040505050505060606060707070808080909090A0A0A0B0B0B6C
:2000C0000C0C0D0D0D0E0E0F0F101011111212131314141515161617181819191A1B1B1CB8
:2000E0001D1D1E1F1F2021222223242526262728292A2A2B2C2D2E2F3031323334353637E4
:2001000038393A3B3C3D3E3F4041424445464748494B4C4D4E50515254555658595A5C5DB1
:200120005E606163646667696A6C6D6F7072737577787A7C7D7F8182848688898B8D8F91F0
:20014000929496989A9C9EA0A2A4A6A8AAACAEB0B2B4B6B8BABCBFC1C3C5C7CACCCED1D36E
:20016000D5D7DADCDFE1E3E6E8EBEDF0F2F5F7FAFCFF00000000250028002B000404040489
:200180000404040402020202020203030303030301020408102040800102040810200102F0
:2001A000040810200000000800020100000304070000000000000000C005260611241FBEE7
:2001C000CFEFD8E0DEBFCDBF21E0A6E0B1E001C01D92A932B207E1F711E0A0E0B1E0E2EBBD
:2001E000FFE002C005900D92A630B107D9F710E0CDEDD0E004C02197FE010E949A06CC3DAC
:20020000D107C9F70E944B040C94CC070C94000090E0FC01EC55FE4F2491FC01E057FE4F11
:200220003491FC01E458FE4FE491EE23B9F0222339F02330F1F098F4213009F1223019F16F
:20024000F0E0EE0FFF1FEE58FE4FA591B4918FB7F894EC9130953E233C938FBF089527301F
:20026000A9F02830C9F0243059F7809180008F7D03C0809180008F7780938000E1CF84B5BD
:200280008F7784BDDDCF84B58F7DFBCF8091B0008F778093B000D4CF8091B0008F7DF9CF9A
:2002A0008F929F92AF92BF92CF92DF92EF92FF92CF93209111013091120182179307E8F56D
:2002C0004B01AA24BB24C82DC52ED62EE72EFF24BC2DA42F20911701222361F0829E400185
:2002E0001124C92D2C9D60011124BD2D249FF0011124AF2FE0911D01E0901801F090190111
:2003000030911A01E31323C09C01220F331F820F931F8E0D9F1DE0911A01E80FF92FF11DB5
:20032000C083E0911B01E80FF92FF11DB08320911C01820F911DFC01A083CF91FF90EF90F2
:20034000DF90CF90BF90AF909F908F900895880F991F880F991F8E0D9F1D472F55276627E2
:200360007727222349F030E0249F7001259FF00C349FF00C11244F2DE80FF92FF11D4083ED
:20038000CACFCF92DF92EF92FF920F931F939C01AAEFB5E00E946906DC01CB019058AF4F21
:2003A000BF4FCD01BB2797FDB095AB2F8E3F21E0920758F5282F8F3F910508F445C06EEFFF
:2003C000681B862F30E02FEF682F70E090E080E0CB0177276627D12CF12CE12C632B7D29AE
:2003E0008E299F29022F10E030E020E0322F212F102F0027602B712B822B932B1F910F9154
:20040000FF90EF90DF90CF9008958C3F23E0920768F48D3F22E0920728F432E0380F2FEFA6
:2004200080E0D2CF2CEF281B3FEFFACF8A3F25E0920769F03AEF381B8B3F24E0920740F48F
:200440008C5F3FEF20E0C0CF30E08FEFBDCF30E020E0FBCFCF93DF9390E0FC01E057FE4F3B
:20046000249184589E4FFC0184918823D1F090E0880F991FFC01E859FF4FA591B491FC01BD
:20048000EE58FE4FC591D49161110EC09FB7F8948C91E22FE0958E238C932881E223E88360
:2004A0009FBFDF91CF9108958FB7F894EC91E22BEC938FBFF6CF3FB7F89480910B019091C3
:2004C0000C01A0910D01B0910E0126B5A89B05C02F3F19F00196A11DB11D3FBFBA2FA92F44
:2004E000982F8827BC01CD01620F711D811D911D42E0660F771F881F991F4A95D1F70895E0
:20050000CF92DF92EF92FF920F931F93CF93DF93CDB7DEB729970FB6F894DEBF0FBECDBFAF
:200520008091180190911901892B09F480C0C0901E01D0901F01E0902001F09021010E94A1
:200540005B026C157D058E059F0550F40E945B0260931E0170931F01809320019093210113
:200560000E945B0200911E0110911F012091200130912101601B710B820B930B6C327140E5
:2005800081059105A0F2F89480911301909114019A838983E0911801F0911901DF011196F1
:2005A0008081898790910F01E0912201F091230180912401992309F449C09081982B9887D5
:2005C0009081809589238F838F818C8388E08B8358856F8149853B812C8189819A815083A6
:2005E00047FD252F3A952083262F39F0441F00C000006083000000C0F2CF38E04D91608313
:200600000000019761F7F0932301E093220149873B832C839A83898378940E945B02609349
:200620001E0170931F01809320019093210129960FB6F894DEBF0FBECDBFDF91CF911F9179
:200640000F91FF90EF90DF90CF9008959081982B98879081809589238F838F818E8388E021
:200660008D8358856F8149853D812E8189819A81508347FD252F00C000C0208300C000C02F
:2006800000C000C000C060830000262F3A9541F0441F000000C000C000C000C000C0E8CF08
:2006A00038E04D9100C0608300C0019709F7F0932301E093220149873D832E83ABCF8F9230
:2006C0009F92AF92BF92CF92DF92EF92FF926B017C010E945B024B015C01C114D104E10453
:2006E000F104B9F00E945B02681979098A099B09683E73408105910580F321E0C21AD10885
:20070000E108F10888EE880E83E0981EA11CB11CE4CFFF90EF90DF90CF90BF90AF909F90FC
:200720008F900895CF92DF92EF92FF92CF93DF936B017C01D0E0C0E08091110190911201B5
:20074000C817D90778F4B701A601CE010E9450010E94800262E370E080E090E00E945F03C0
:200760002196EACFDF91CF91FF90EF90DF90CF9008958F929F92AF92BF92EF92FF920F9328
:200780001F93CF93DF934B015C018AE0E82EF12CD0E0C0E0409113015091140170E060E0D2
:2007A00080911801909119010E94C5078E0180911101909112010817190740F4B501A401B2
:2007C000C8010E9450010D5F1F4FF1CF0E94800262E370E080E090E00E945F032196C3308C
:2007E000D105C1F681E0E81AF10891F6DF91CF911F910F91FF90EF90BF90AF909F908F907F
:2008000008951F920F920FB60F9211242F933F938F939F93AF93BF9380910701909108018F
:20082000A0910901B0910A013091060123E0230F2D3758F50196A11DB11D20930601809393
:20084000070190930801A0930901B0930A0180910B0190910C01A0910D01B0910E01019668
:20086000A11DB11D80930B0190930C01A0930D01B0930E01BF91AF919F918F913F912F919A
:200880000F900FBE0F901F90189526E8230F0296A11DB11DD2CFCF93DF93CDB7DEB72C973C
:2008A0000FB6F894DEBF0FBECDBF789484B5826084BD84B5816084BD85B5826085BD85B596
:2008C000816085BD80916E00816080936E0010928100809181008260809381008091810057
:2008E000816080938100809180008160809380008091B10084608093B1008091B000816072
:200900008093B00080917A00846080937A0080917A00826080937A0080917A00816080939F
:200920007A0080917A00806880937A001092C100809115019091160197FD07C061E00E943D
:200940002A02809115010E94080181E0809310010E94800260911701633329F1209118016D
:20096000309119016150C9F070E08FEF92E30E943606F9014091130150911401CF01821BCF
:20098000930B8417950760F44081469FC001479F900D112490833196EDCF70E060E0E9CF31
:2009A00083E380931701CE0109969A878987FE013596FC87EB8760E070E08FEF90E00E9428
:2009C000920360E07FEF80E090E00E9492036FEF70E080E090E00E9492036FE77FE78FE7E6
:2009E00090E00E94B90360E070E08FE790E00E94B9036FE770E080E090E00E94B903C12C94
:200A0000D12C7601812C912C540110E000E020911101309112010217130760F550E040E064
:200A2000C501B4010E944A06C9018C0D9D1D0E94C1016D837E838F839887DE011596ED919E
:200A4000F0E0EE58FF4F2491CD010197FC01208389859A85A817B90791F74D815E816F81A6
:200A60007885C8010E9450010F5F1F4F9FEFA91AB90ACDCF0E9480026AE070E080E090E0A3
:200A80000E945F03EFEFDE1AEE0AFE0AC114D104F5E0EF06F10409F0B5CF10E000E01801AD
:200AA000C12CD12C7601912C812C409113015091140170E060E080911801909119010E94F9
:200AC000C5072601370154012091110130911201A216B30668F550E040E0C301B2010E94C8
:200AE0004A06C101820F931F0E94C10169837A838B839C83DE011196ED91F0E0EE58FF4FBF
:200B00002491CD010197FC0120838B859C858A179B0791F749815A816B817C81C5010E9428
:200B2000500193E0A90EB11CE3E06E0E711CCCCF0E94800262E370E080E090E00E945F0379
:200B4000FFEF8F1A9F0A8FEFE81AF80A98E2291A9DEF390AC114D104E3E0EE06F10409F0F8
:200B6000A4CF0857174F003FFFEF1F0709F097CF80E090E0892B09F41ECF0E9400001BCF91
:200B8000CF93DF93109210011092170110921E0110921F01109220011092210181E0809396
:200BA0001D0180931A0110921B0192E090931C0180930F01CDEAD1E0D0931401C09313010F
:200BC0008DEA91E00E94A0069093190180931801009799F1FC019E01119221503040E1F763
:200BE0008FE890E0909312018093110186E090E0909316018093150180911001882339F084
:200C000061E086E00E942A0286E00E940801E2E8F1E0E491F0E0EE0FFF1FEE58FE4F8591AA
:200C200094919093230180932201E6E9F1E0E491E0932401DF91CF9108951092140110929F
:200C400013011092120110921101D0CF80911801909119010E943C078091150190911601CF
:200C600097FD03C060E00C942A020895AA1BBB1B51E107C0AA1FBB1FA617B70710F0A61B01
:200C8000B70B881F991F5A95A9F780959095BC01CD010895052E97FB1EF400940E946106CE
:200CA00057FD07D00E94780607FC03D04EF40C94610650954095309521953F4F4F4F5F4FBB
:200CC000089590958095709561957F4F8F4F9F4F0895A29FB001B39FC001A39F700D811DA9
:200CE0001124911DB29F700D811D1124911D0895A1E21A2EAA1BBB1BFD010DC0AA1FBB1F51
:200D0000EE1FFF1FA217B307E407F50720F0A21BB30BE40BF50B661F771F881F991F1A94AC
:200D200069F760957095809590959B01AC01BD01CF010895EE0FFF1F0590F491E02D0994CC
:200D40000F931F93CF93DF938230910510F482E090E0E0912701F091280130E020E0B0E06A
:200D6000A0E0309799F42115310509F44AC0281B390B24303105D8F58A819B81611571053B
:200D800089F1FB0193838283FE0111C0408151810281138148175907E0F04817590799F46D
:200DA000109761F012960C93129713961C933296CF01DF91CF911F910F91089500932701E3
:200DC00010932801F4CF2115310551F04217530738F0A901DB019A01BD01DF01F801C1CFB4
:200DE000EF01F9CF9093280180932701CDCFFE01E20FF31F819391932250310939832883CB
:200E0000D7CF2091250130912601232B41F4209102013091030130932601209325012091FD
:200E20000001309101012115310541F42DB73EB74091040150910501241B350BE0912501A1
:200E4000F0912601E217F307A0F42E1B3F0B2817390778F0AC014E5F5F4F2417350748F032
:200E60004E0F5F1F5093260140932501819391939FCFF0E0E0E09CCFCF93DF930097E9F0AF
:200E8000FC01329713821282A0912701B0912801ED0130E020E01097A1F420813181820F82
:200EA000931F20912501309126012817390709F061C0F0932601E0932501DF91CF91089578
:200EC000EA01CE17DF07E8F54A815B819E0141155105B1F7E901FB83EA8349915991C40F79
:200EE000D51FEC17FD0761F4808191810296840F951FE90199838883828193819B838A835D
:200F0000F0E0E0E012968D919C9113970097B9F52D913C911197CD010296820F931F2091D2
:200F20002501309126012817390739F6309751F51092280110922701B0932601A093250190
:200F4000BCCFD383C28340815181840F951FC817D90761F44E5F5F4F88819981480F591F30
:200F6000518340838A819B81938382832115310509F0B0CFF0932801E09327019ECFFD0102
:200F8000DC01C0CF13821282D7CFDC0101C06D9341505040E0F7089510E0CDEDD0E004C0C5
:200FA000FE010E949A062196CE3DD107C9F7F894FFCF000029018000FFFFFFFFFFFFFFFF9A
:200FC000FFFFFFFFFFFFFFFFFFFFFFFFFFFFFFFFFFFFFFFFFFFFFFFFFFFFFFFFFFFFFFFF31
:200FE000FFFFFFFFFFFFFFFFFFFFFFFFFFFFFFFFFFFFFFFFFFFFFFFFFFFFFFFFFFFFFFFF11
:2010000090E0E0912701F091280130E020E0B0E0A0E0309799F42115310509F44AC0281BF3
:20102000390B24303105D8F58A819B816115710589F1FB0193838283FE0111C0408151810E
:201040000281138148175907E0F04817590799F4109761F012960C93129713961C93329696
:20106000CF01DF91CF911F910F9108950093270110932801F4CF2115310551F04217530739
:2010800038F0A901DB019A01BD01DF01F801C1CFEF01F9CF9093280180932701CDCFFE0106
:2010A000E20FF31F819391932250310939832883D7CF2091250130912601232B41F4209149
:2010C000020130910301309326012093250120910001309101012115310541F42DB73EB796
:2010E0004091040150910501241B350BE0912501F0912601E217F307A0F42E1B3F0B28171C
:20110000390778F0AC014E5F5F4F2417350748F04E0F5F1F5093260140932501819391935A
:201120009FCFF0E0E0E09CCFCF93DF930097E9F0FC01329713821282A0912701B091280150
:20114000ED0130E020E01097A1F420813181820F931F20912501309126012817390709F088
:2011600061C0F0932601E0932501DF91CF910895EA01CE17DF07E8F54A815B819E0141156F
:201180005105B1F7E901FB83EA8349915991C40FD51FEC17FD0761F4808191810296840F57
:2011A000951FE90199838883828193819B838A83F0E0E0E012968D919C9113970097B9F5B6
:2011C0002D913C911197CD010296820F931F20912501309126012817390739F6309751F5B9
:2011E0001092280110922701B0932601A0932501BCCFD383C28340815181840F951FC817B8
:20120000D90761F44E5F5F4F88819981480F591F518340838A819B81938382832115310507
:2012200009F0B0CFF0932801E09327019ECFFD01DC01C0CF13821282D7CF11E0CDE5D1E0F5
:2012400004C0FE010E94F2072196CE35D107C9F7F894FFCF000029018000FFFFFFFFFFFFE0
:20126000FFFFFFFFFFFFFFFFFFFFFFFFFFFFFFFFFFFFFFFFFFFFFFFFFFFFFFFFFFFFFFFF8E
:2012800008958F929F92AF92BF92CF92DF92EF92FF92CF93DF93EC01688179818A819B811E
:2012A000611571058105910521F464E279ED8BE597E02DE133EF41E050E00E94E509490123
:2012C0005A019B01AC01A7EAB1E40E94040A6B017C01ACEEB4EFA50194010E94120AC60EA1
:2012E000D71EE81EF91EF7FE06C081E0C81AD108E10880E8F80AC882D982EA82FB82C7015C
:20130000B6019F77DF91CF91FF90EF90DF90CF90BF90AF909F908F9008958F929F92AF9248
:20132000BF92CF92DF92EF92FF9260910001709101018091020190910301611571058105D8
:20134000910521F464E279ED8BE597E02DE133EF41E050E00E94E50949015A019B01AC0150
:20136000A7EAB1E40E94040A6B017C01ACEEB4EFA50194010E94120AC60ED71EE81EF91E92
:20138000F7FE06C081E0C81AD108E10880E8F80AC0920001D0920101E0920201F092030171
:2013A000C701B6019F77FF90EF90DF90CF90BF90AF909F908F90089560930001709301014A
:2013C00080930201909303010895052E97FB1EF400940E94FC0957FD07D00E94170A07FC30
:2013E00003D04EF40C94FC0950954095309521953F4F4F4F5F4F0895909580957095619552
:201400007F4F8F4F9F4F08950E94390AA59F900DB49F900DA49F800D911D11240895B7FFD9
:201420000C94040A0E94040A821B930B0895A1E21A2EAA1BBB1BFD010DC0AA1FBB1FEE1F95
:20144000FF1FA217B307E407F50720F0A21BB30BE40BF50B661F771F881F991F1A9469F712
:2014600060957095809590959B01AC01BD01CF010895A29FB001B39FC001A39F700D811D62
:201480001124911DB29F700D811D1124911D08955058BB27AA270E94600A0C94FB0A0E94CF
:2014A000ED0A38F00E94F40A20F039F49F3F19F426F40C94EA0A0EF4E095E7FB0C94E40AB0
:2014C000E92F0E940C0B58F3BA17620773078407950720F079F4A6F50C942E0B0EF4E095AD
:2014E0000B2EBA2FA02D0B01B90190010C01CA01A0011124FF27591B99F0593F50F4503E6B
:2015000068F11A16F040A22F232F342F4427585FF3CF469537952795A795F0405395C9F731
:201520007EF41F16BA0B620B730B840BBAF09150A1F0FF0FBB1F661F771F881FC2F70EC078
:20154000BA0F621F731F841F48F4879577956795B795F7959E3F08F0B0CF9395880F08F0C9
:201560009927EE0F9795879508950E94140B88F09F5798F0B92F9927B751B0F0E1F0660F7C
:20158000771F881F991F1AF0BA95C9F714C0B13091F00E942E0BB1E008950C942E0B672F8F
:2015A000782F8827B85F39F0B93FCCF3869577956795B395D9F73EF490958095709561953C
:2015C0007F4F8F4F9F4F089597F99F6780E870E060E008959FEF80EC089500240A94161624
:2015E000170618060906089500240A9412161306140605060895092E0394000C11F48823B5
:2016000052F0BB0F40F4BF2B11F460FF04C06F5F7F4F8F4F9F4F089557FD9058440F551F70
:2016200059F05F3F71F04795880F97FB991F61F09F3F79F087950895121613061406551F85
:20164000F2CF4695F1DF08C0161617061806991FF1CF86957105610508940895E894BB27E9
:2016600066277727CB0197F908950E94480B0C94FB0A0E94ED0A38F00E94F40A20F0952383
:2016800011F00C94E40A0C94EA0A11240C942F0B0E940C0B70F3959FC1F3950F50E0551FCC
:2016A000629FF001729FBB27F00DB11D639FAA27F00DB11DAA1F649F6627B00DA11D661F83
:2016C000829F2227B00DA11D621F739FB00DA11D621F839FA00D611D221F749F3327A00DEE
:2016E000611D231F849F600D211D822F762F6A2F11249F5750409AF0F1F088234AF0EE0F65
:20170000FF1FBB1F661F771F881F91505040A9F79E3F510580F00C94E40A0C942F0B5F3F55
:20172000E4F3983ED4F3869577956795B795F795E7959F5FC1F7FE2B880F911D9695879553
:2017400097F908959F930E94AC0B0F9007FCEE5F0C94D50B0C94EA0A0E94140BD8F3E894C6
:20176000E0E0BB279F57F0F02AED3FE049EC06C0EE0FBB0F661F771F881F28F0B23A6207CA
:201780007307840728F0B25A620B730B840BE3959A9572F7803830F49A95BB0F661F771FA6
:2017A000881FD2F790480C94EB0BEF93E0FF07C0A2EA2AED3FE049EC5FEB0E94600A0E9434
:2017C000FB0A0F90039401FC9058E8E6F0E00C94F70B9F3F31F0915020F487957795679591
:2017E000B795880F911D9695879597F908959F938F937F936F93FF93EF939B01AC010E947D
:20180000350BEF91FF910E940B0C2F913F914F915F910C94350BDF93CF931F930F93FF92C6
:20182000EF92DF927B018C01689406C0DA2EEF010E94480BFE01E894A591259135914591FB
:201840005591A6F3EF010E94600AFE019701A801DA9469F7DF90EF90FF900F911F91CF91D2
:20186000DF910895991B79E004C0991F961708F0961B881F7A95C9F78095089597FB072E8D
:2018800016F4009407D077FD09D00E94520C07FC05D03EF4909581959F4F089570956195BB
:2018A0007F4F0895AA1BBB1B51E107C0AA1FBB1FA617B70710F0A61BB70B881F991F5A953A
:2018C000A9F780959095BC01CD010895EE0FFF1F0590F491E02D09940F931F93CF93DF93FF
:2018E0008230910510F482E090E0E0914701F091480130E020E0B0E0A0E0309799F421159D
:20190000310509F44AC0281B390B24303105D8F58A819B816115710589F1FB019383828308
:20192000FE0111C0408151810281138148175907E0F04817590799F4109761F012960C9313
:20194000129713961C933296CF01DF91CF911F910F9108950093470110934801F4CF211571
:20196000310551F04217530738F0A901DB019A01BD01DF01F801C1CFEF01F9CF90934801A9
:2019800080934701CDCFFE01E20FF31F819391932250310939832883D7CF209145013091A5
:2019A0004601232B41F4209106013091070130934601209345012091040130910501211526
:2019C000310541F42DB73EB74091080150910901241B350BE0914501F0914601E217F3070D
:2019E000A0F42E1B3F0B2817390778F0AC014E5F5F4F2417350748F04E0F5F1F509346011D
:201A000040934501819391939FCFF0E0E0E09CCFCF93DF930097E9F0FC01329713821282D9
:201A2000A0914701B0914801ED0130E020E01097A1F420813181820F931F2091450130911B
:201A400046012817390709F061C0F0934601E0934501DF91CF910895EA01CE17DF07E8F523
:201A60004A815B819E0141155105B1F7E901FB83EA8349915991C40FD51FEC17FD0761F410
:201A8000808191810296840F951FE90199838883828193819B838A83F0E0E0E012968D91AB
:201AA0009C9113970097B9F52D913C911197CD010296820F931F20914501309146012817F0
:201AC000390739F6309751F51092480110924701B0934601A0934501BCCFD383C2834081CB
:201AE0005181840F951FC817D90761F44E5F5F4F88819981480F591F518340838A819B81AE
:201B0000938382832115310509F0B0CFF0934801E09347019ECFFD01DC01C0CF138212823F
:201B2000D7CF10E0CCE6D0E004C0FE010E94660C2196CD36D107C9F7F894FFCF0100000029
:201B4000000049018000FFFFFFFFFFFFFFFFFFFFFFFFFFFFFFFFFFFFFFFFFFFFFFFFFFFFD5
:201B6000FFFFFFFFFFFFFFFFFFFFFFFFFFFFFFFFFFFFFFFFFFFFFFFFFFFFFFFFFFFFFFFF85
:201B80008093B000C093B4000AC0C038D1051CF4812F60E002C0812F61E00E94F90DDF9118
:201BA000CF911F910895482F50E0CA0186569F4FFC0124914A575F4FFA0184918823C1F0CF
:201BC000E82FF0E0EE0FFF1FE859FF4FA591B491662341F49FB7F8948C91209582238C93C3
:201BE0009FBF08959FB7F8948C91822B8C939FBF0895482F50E0CA0182559F4FFC0124913B
:201C0000CA0186569F4FFC0134914A575F4FFA019491992309F444C0222351F1233071F006
:201C2000243028F42130A1F0223011F514C02630B1F02730C1F02430D9F404C080918000B1
:201C40008F7703C0809180008F7D8093800010C084B58F7702C084B58F7D84BD09C080915A
:201C6000B0008F7703C08091B0008F7D8093B000E92FF0E0EE0FFF1FEE58FF4FA591B49149
:201C8000662341F49FB7F8948C91309583238C939FBF08959FB7F8948C91832B8C939FBFD8
:201CA00008951F920F920FB60F9211242F933F934F938F939F93EF93FF934091C600E091B4
:201CC0005D03F0915E0331969F012F773070319780915F03909160032817390739F0E35279
:201CE000FD4F408330935E0320935D03FF91EF919F918F914F913F912F910F900FBE0F90C3
:201D00001F901895CF93DF93EC019A01AB01E885F985203081EE380780E0480780E0580708
:201D200009F449C081E090E00A8802C0880F991F0A94E2F7808360E079E08DE390E00E9494
:201D400072112150304040405040CA01B90122E030E040E050E00E947211EC81FD81308365
:201D6000EE81FF812083EA85FB85208141E050E0CA010E8402C0880F991F0A94E2F7282BB8
:201D80002083EA85FB852081CA010F8402C0880F991F0A94E2F7282B2083EA85FB85808144
:201DA000088802C0440F551F0A94E2F7842B8083DF91CF910895108220E130E0CECFDC0157
:201DC0001296ED91FC911397E058FF4F2191319180819181281B390B2F773070C901089565
:201DE000DC011296ED91FC911397EE57FF4F2081318192918291E058F0408217930719F4E5
:201E00002FEF3FEF05C0E20FF31F8081282F30E0C9010895DC011296ED91FC911397DF01C5
:201E2000AE57BF4F2D913C911197E058FF4F80819181E058F0408217930719F42FEF3FEFCF
:201E40000BC0E20FF31F80812F5F3F4F2F7730702D933C93282F30E0C9010895DC0112966F
:201E6000ED91FC911397EE57FF4F80819181929382930895FC01A085B18521898C9190E0A1
:201E8000022E02C0959587950A94E2F780FFF6CF0484F585E02D6083089580EE91E09093BE
:201EA0006203809361038DED92E0909364038093630385EC90E0909366038093650384ECFF
:201EC00090E0909368038093670380EC90E090936A038093690381EC90E090936C0380931A
:201EE0006B0386EC90E090936E0380936D0384E080936F0383E08093700387E080937103BB
:201F000085E08093720381E08093730308950E94160D0E942D0B0E94D40BFDCF0F931F930D
:201F2000CF93DF938C01EB0109C02196D801ED91FC910190F081E02DC80109956881662308
:201F4000A1F7DF91CF911F910F910895EF92FF920F931F93CF93DF938C017B01EA010CC032
:201F6000D7016D917D01D801ED91FC910190F081E02DC80109952197209791F7DF91CF91EC
:201F80001F910F91FF90EF9008952F923F924F925F926F927F928F929F92AF92BF92CF928B
:201FA000DF92EF92FF920F931F93DF93CF93CDB7DEB7A0970FB6F894DEBF0FBECDBF1C01C2
:201FC0006A017B01411551056105710549F440E350E060E070E020E030E00E94801056C01A
:201FE000882499245401422E55246624772401E010E00C0F1D1F080D191DC701B601A3017F
:2020000092010E945011F80160830894811C911CA11CB11CC701B601A30192010E94501125
:20202000C901DA016C017D01C114D104E104F104F1F681E0E82EF12CEC0EFD1EE80CF91CF3
:202040003E010894611C711CD501C4010197A109B1096C01C818D90816C0F601EE0DFF1DF2
:2020600040814A3010F4405D01C0495C552747FD5095652F752FC10120E030E00E9480103D
:202080000894E108F1086E147F0439F7A0960FB6F894DEBF0FBECDBFCF91DF911F910F91F0
:2020A000FF90EF90DF90CF90BF90AF909F908F907F906F905F904F903F902F900895DC0184
:2020C0002115310541F4ED91FC910190F081E02D642F099508950E94C50F0895EF92FF9252
:2020E0000F931F939A01E62EFF2400E010E0B801A7010E945F101F910F91FF90EF9008957D
:20210000EF92FF920F931F93CF93DF93EC017A018B012115310541F4E881F9810190F0810B
:20212000E02D642F09951BC02A303105B1F477FF10C04DE250E060E070E020E030E00E946A
:20214000801010950095F094E094E11CF11C011D111DCE01B801A7012AE00E94C50FDF9147
:20216000CF911F910F91FF90EF900895EF92FF920F931F937B019A010027F7FC0095102F99
:20218000B801A7010E9480101F910F91FF90EF9008952F923F924F925F926F927F928F921A
:2021A0009F92AF92BF92CF92DF92EF92FF920F931F93DF93CF93CDB7DEB73B014C01190194
:2021C0002A016D897E898F89988D6A197B098C099D09621A730A840A950AA40193010E9457
:2021E0001211E218F30804091509A80197010E9472112A0D3B1D4C1D5D1DB901CA01CF91DF
:20220000DF911F910F91FF90EF90DF90CF90BF90AF909F908F907F906F905F904F903F909B
:202220002F900895629FD001739FF001829FE00DF11D649FE00DF11D929FF00D839FF00D06
:20224000749FF00D659FF00D9927729FB00DE11DF91F639FB00DE11DF91FBD01CF01112431
:202260000895991B79E004C0991F961708F0961B881F7A95C9F78095089597FB092E0726C4
:202280000AD077FD04D049D006D000201AF4709561957F4F0895F6F7909581959F4F0895E6
:2022A000A1E21A2EAA1BBB1BFD010DC0AA1FBB1FEE1FFF1FA217B307E407F50720F0A21BF8
:2022C000B30BE40BF50B661F771F881F991F1A9469F760957095809590959B01AC01BD018E
:2022E000CF01089597FB092E05260ED057FD04D0D7DF0AD0001C38F450954095309521956A
:202300003F4F4F4F5F4F0895F6F790958095709561957F4F8F4F9F4F0895AA1BBB1B51E120
:2023200007C0AA1FBB1FA617B70710F0A61BB70B881F991F5A95A9F780959095BC01CD0182
:202340000895EE0FFF1F0590F491E02D0994F894FFCF2E63707000536572766F206F6E6CBE
:2023600079206F6E2070696E732066726F6D203220746F20313300493243206D6F646520BD
:202380006E6F742079657420737570706F7274656400556E6B6E6F776E2070696E206D6F21
:2023A0006465004E6F7420656E6F7567682064617461002F7661722F666F6C646572732FFE
:2023C000714D2F714D625253563343325261522D452B42597048425A2B2B2B2B544D2F2D13
:2023E000546D702D2F6275696C64373231323230393532393437333637393237322E746D4B
:20240000702F5374616E646172644669726D6174615F325F325F666F72554E4F5F305F334D
:202420002E63707000200078030000130001000000003A0F8E0FA60FDF0E0A0F2E0FF00EA0
:20244000714D2F714D625253563343325261522D452B42597048425A2B2B2B2B544D2F2D92
:20246000546D702D2F6275696C64373231323230393532393437333637393237322E746DCA
:20248000FFFFFFFFFFFFFFFFFFFFFFFFFFFFFFFFFFFFFFFFFFFFFFFFFFFFFFFFFFFFFFFF5C
:2024A000FFFFFFFFFFFFFFFFFFFFFFFFFFFFFFFFFFFFFFFFFFFFFFFFFFFFFFFFFFFFFFFF3C
:2024C000FFFFFFFFFFFFFFFFFFFFFFFFFFFFFFFFFFFFFFFFFFFFFFFFFFFFFFFFFFFFFFFF1C
:2024E000FFFFFFFFFFFFFFFFFFFFFFFFFFFFFFFFFFFFFFFFFFFFFFFFFFFFFFFFFFFFFFFFFC
:207E0000112484B714BE81FFF0D085E08093810082E08093C00088E18093C10086E08093FC
:207E2000C20080E18093C4008EE0C9D0259A86E020E33CEF91E0309385002093840096BBAD
:207E4000B09BFECF1D9AA8958150A9F7CC24DD2488248394B5E0AB2EA1E19A2EF3E0BF2E79
:207E6000A2D0813461F49FD0082FAFD0023811F0013811F484E001C083E08DD089C0823404
:207E800011F484E103C0853419F485E0A6D080C0853579F488D0E82EFF2485D0082F10E0A0
:207EA000102F00270E291F29000F111F8ED068016FC0863521F484E090D080E0DECF84364D
:207EC00009F040C070D06FD0082F6DD080E0C81680E7D80618F4F601B7BEE895C0E0D1E0ED
:207EE00062D089930C17E1F7F0E0CF16F0E7DF0618F0F601B7BEE89568D007B600FCFDCF1A
:207F0000A601A0E0B1E02C9130E011968C91119790E0982F8827822B932B1296FA010C016F
:207F200087BEE89511244E5F5F4FF1E0A038BF0751F7F601A7BEE89507B600FCFDCF97BE85
:207F4000E89526C08437B1F42ED02DD0F82E2BD03CD0F601EF2C8F010F5F1F4F84911BD0B8
:207F6000EA94F801C1F70894C11CD11CFA94CF0CD11C0EC0853739F428D08EE10CD085E9AE
:207F80000AD08FE07ACF813511F488E018D01DD080E101D065CF982F8091C00085FFFCCF0A
:207FA0009093C60008958091C00087FFFCCF8091C00084FD01C0A8958091C6000895E0E68F
:207FC000F0E098E1908380830895EDDF803219F088E0F5DFFFCF84E1DECF1F93182FE3DF47
:207FE0001150E9F7F2DF1F91089580E0E8DFEE27FF270994FFFFFFFFFFFFFFFFFFFF040425
:00000001FF
